:020000040800F2
:10D00000FFFF0020310B0108850B0108850B01088B
:10D01000850B0108850B0108850B01080000000045
:10D02000000000000000000000000000850B010867
:10D03000850B010800000000850B0108850B010825
:10D04000850B0108850B0108850B010829010108E2
:10D05000850B0108850B0108850B0108850B01086C
:10D06000850B0108850B0108850B0108850B01085C
:10D07000850B0108850B0108850B0108850B01084C
:10D08000850B0108850B0108850B0108850B01083C
:10D09000850B0108850B0108850B0108850B01082C
:10D0A000850B0108850B0108850B0108850B01081C
:10D0B000850B01080000000000000000850B01083E
:10D0C000850B0108850B0108850B0108850B0108FC
:10D0D000850B0108850B010849020108850B010831
:10D0E000850B0108CD0101080000000000000000D0
:10D0F0000000000000000000000000000000000030
:10D1000000000000850B010800000000850B0108ED
:10D110000000000000000000850B0108850B0108DD
:10D12000850B0108850B0108850B0108850B01089B
:10D13000850B010800000000000000000000000056
:10D14000850B0108850B0108850B01080000000014
:10D15000850B0108850B0108850B0108850B01086B
:10D16000850B0108850B0108850B010800000000F4
:10D17000850B0108850B010800000000000000007D
:10D18000850B0108850B0108850B010800000000D4
:10D8000010B5054C237833B9044B13B10448AFF37A
:10D8100000800123237010BD302000200000000094
:10D82000A00C010808B5034B1BB103490348AFF333
:10D83000008008BD0000000034200020A00C01087A
:10D84000034613F8012B002AFBD1181A0138704740
:10D8500081F0004102E000BF83F0004330B54FEAA1
:10D8600041044FEA430594EA050F08BF90EA020F0E
:10D870001FBF54EA000C55EA020C7FEA645C7FEAA1
:10D88000655C00F0E2804FEA5454D4EB5555B8BFC4
:10D890006D420CDD2C4480EA020281EA030382EA35
:10D8A000000083EA010180EA020281EA0303362DC7
:10D8B00088BF30BD11F0004F4FEA01314FF4801C9A
:10D8C0004CEA113102D0404261EB410113F0004FAC
:10D8D0004FEA03334CEA133302D0524263EB430363
:10D8E00094EA050F00F0A780A4F10104D5F1200E01
:10D8F0000DDB02FA0EFC22FA05F2801841F100015C
:10D9000003FA0EF2801843FA05F359410EE0A5F12F
:10D9100020050EF1200E012A03FA0EFC28BF4CF060
:10D92000020C43FA05F3C01851EBE37101F0004516
:10D9300007D54FF0000EDCF1000C7EEB00006EEB23
:10D940000101B1F5801F1BD3B1F5001F0CD34908AD
:10D950005FEA30004FEA3C0C04F101044FEA445204
:10D9600012F5800F80F09A80BCF1004F08BF5FEA8B
:10D97000500C50F1000041EB045141EA050130BD6B
:10D980005FEA4C0C404141EB010111F4801FA4F10E
:10D990000104E9D191F0000F04BF01460020B1FA63
:10D9A00081F308BF2033A3F10B03B3F120020CDA9B
:10D9B0000C3208DD02F1140CC2F10C0201FA0CF079
:10D9C00021FA02F10CE002F11402D8BFC2F1200CDE
:10D9D00001FA02F120FA0CFCDCBF41EA0C01904094
:10D9E000E41AA2BF01EB0451294330BD6FEA0404DD
:10D9F0001F3C1CDA0C340EDC04F11404C4F12002C8
:10DA000020FA04F001FA02F340EA030021FA04F3D9
:10DA100045EA030130BDC4F10C04C4F1200220FA30
:10DA200002F001FA04F340EA0300294630BD21FA6E
:10DA300004F0294630BD94F0000F83F4801306BF34
:10DA400081F480110134013D4EE77FEA645C18BF28
:10DA50007FEA655C29D094EA050F08BF90EA020FBF
:10DA600005D054EA000C04BF1946104630BD91EAB7
:10DA7000030F1EBF0021002030BD5FEA545C05D1BA
:10DA80004000494128BF41F0004130BD14F58004F9
:10DA90003CBF01F5801130BD01F0004545F0FE416D
:10DAA00041F470014FF0000030BD7FEA645C1ABFA2
:10DAB000194610467FEA655C1CBF0B46024650EAD9
:10DAC000013406BF52EA033591EA030F41F4002105
:10DAD00030BD00BF90F0000F04BF0021704730B58B
:10DAE0004FF4806404F132044FF000054FF0000160
:10DAF00050E700BF90F0000F04BF0021704730B521
:10DB00004FF4806404F1320410F0004548BF4042F5
:10DB10004FF000013EE700BF42004FEAE2014FEA4A
:10DB200031014FEA02701FBF12F07F4393F07F4F25
:10DB300081F06051704732F07F4208BF704793F028
:10DB40007F4F04BF41F40021704730B54FF460743B
:10DB500001F0004521F000411CE700BF50EA01023E
:10DB600008BF704730B54FF000050AE050EA0102E7
:10DB700008BF704730B511F0004502D5404261EB57
:10DB800041014FF4806404F132045FEA915C3FF498
:10DB9000D8AE4FF003025FEADC0C18BF03325FEA35
:10DBA000DC0C18BF033202EBDC02C2F1200300FAE6
:10DBB00003FC20FA02F001FA03FE40EA0E0021FA0B
:10DBC00002F11444BDE600BF70B54FF0FF0C4CF4F9
:10DBD000E06C1CEA11541DBF1CEA135594EA0C0FAB
:10DBE00095EA0C0F00F0DEF82C4481EA030621EAE6
:10DBF0004C5123EA4C5350EA013518BF52EA033521
:10DC000041F4801143F4801338D0A0FB02CE4FF0D2
:10DC10000005E1FB02E506F00042E0FB03E54FF002
:10DC20000006E1FB03569CF0000F18BF4EF0010EFA
:10DC3000A4F1FF04B6F5007F64F5407404D25FEAF6
:10DC40004E0E6D4146EB060642EAC62141EA5551A9
:10DC50004FEAC52040EA5E504FEACE2EB4F1FD0CEB
:10DC600088BFBCF5E06F1ED8BEF1004F08BF5FEA69
:10DC7000500E50F1000041EB045170BD06F000461B
:10DC800046EA010140EA020081EA0301B4EB5C04C8
:10DC9000C2BFD4EB0C0541EA045170BD41F48011C0
:10DCA0004FF0000E013C00F3AB8014F1360FDEBFE5
:10DCB000002001F0004170BDC4F10004203C35DAC1
:10DCC0000C341BDC04F11404C4F1200500FA05F344
:10DCD00020FA04F001FA05F240EA020001F00042E5
:10DCE00021F0004110EBD37021FA04F642EB06015B
:10DCF0005EEA430E08BF20EAD37070BDC4F10C0485
:10DD0000C4F1200500FA04F320FA05F001FA04F248
:10DD100040EA020001F0004110EBD37041F1000134
:10DD20005EEA430E08BF20EAD37070BDC4F120053F
:10DD300000FA05F24EEA020E20FA04F301FA05F2A7
:10DD400043EA020321FA04F001F0004121FA04F24F
:10DD500020EA020000EBD3705EEA430E08BF20EA1F
:10DD6000D37070BD94F0000F0FD101F00046400059
:10DD700041EB010111F4801F08BF013CF7D041EADB
:10DD8000060195F0000F18BF704703F000465200DF
:10DD900043EB030313F4801F08BF013DF7D043EAB0
:10DDA0000603704794EA0C0F0CEA135518BF95EA66
:10DDB0000C0F0CD050EA410618BF52EA4306D1D1ED
:10DDC00081EA030101F000414FF0000070BD50EA0C
:10DDD000410606BF1046194652EA430619D094EA96
:10DDE0000C0F02D150EA013613D195EA0C0F05D180
:10DDF00052EA03361CBF104619460AD181EA0301D4
:10DE000001F0004141F0FE4141F470014FF000008B
:10DE100070BD41F0FE4141F4780170BD70B54FF026
:10DE2000FF0C4CF4E06C1CEA11541DBF1CEA1355A6
:10DE300094EA0C0F95EA0C0F00F0A7F8A4EB050488
:10DE400081EA030E52EA03354FEA013100F088807F
:10DE50004FEA03334FF0805545EA131343EA126348
:10DE60004FEA022245EA111545EA10654FEA0026FD
:10DE70000EF000419D4208BF964244F1FD0404F5B6
:10DE8000407402D25B084FEA3202B61A65EB030512
:10DE90005B084FEA32024FF480104FF4002CB6EBCF
:10DEA000020E75EB030E22BFB61A754640EA0C004F
:10DEB0005B084FEA3202B6EB020E75EB030E22BF8F
:10DEC000B61A754640EA5C005B084FEA3202B6EBD0
:10DED000020E75EB030E22BFB61A754640EA9C008F
:10DEE0005B084FEA3202B6EB020E75EB030E22BF5F
:10DEF000B61A754640EADC0055EA060E18D04FEA1D
:10DF0000051545EA16754FEA06164FEAC30343EABC
:10DF100052734FEAC2025FEA1C1CC0D111F4801F89
:10DF20000BD141EA00014FF000004FF0004CB6E782
:10DF300011F4801F04BF01430020B4F1FD0C88BF21
:10DF4000BCF5E06F3FF6AFAEB5EB030C04BFB6EB2C
:10DF5000020C5FEA500C50F1000041EB045170BD1F
:10DF60000EF0004E4EEA113114EB5C04C2BFD4EB4C
:10DF70000C0541EA045170BD41F480114FF0000ED0
:10DF8000013C90E645EA060E8DE60CEA135594EA4C
:10DF90000C0F08BF95EA0C0F3FF43BAF94EA0C0F4F
:10DFA0000AD150EA01347FF434AF95EA0C0F7FF4C4
:10DFB00025AF104619462CE795EA0C0F06D152EA18
:10DFC00003353FF4FDAE1046194622E750EA4106FC
:10DFD00018BF52EA43067FF4C5AE50EA41047FF40D
:10DFE0000DAF52EA43057FF4EBAE12E74FF0FF3C72
:10DFF00006E000BF4FF0010C02E000BF4FF0010C43
:10E000004DF804CD4FEA410C7FEA6C5C4FEA430CBB
:10E0100018BF7FEA6C5C1BD001B050EA410C0CBF0A
:10E0200052EA430C91EA030F02BF90EA020F00206C
:10E03000704710F1000F91EA030F58BF994208BFD3
:10E0400090422CBFD8176FEAE37040F00100704790
:10E050004FEA410C7FEA6C5C02D150EA013C07D1E7
:10E060004FEA430C7FEA6C5CD6D152EA033CD3D032
:10E070005DF8040B704700BF8446104662468C462C
:10E080001946634600E000BF01B5FFF7B7FF00285F
:10E0900048BF10F1000F01BD4DF808EDFFF7F4FF88
:10E0A0000CBF012000205DF808FB00BF4DF808ED13
:10E0B000FFF7EAFF34BF012000205DF808FB00BF36
:10E0C0004DF808EDFFF7E0FF94BF012000205DF858
:10E0D00008FB00BF4DF808EDFFF7CEFF94BF01200D
:10E0E00000205DF808FB00BF4DF808EDFFF7C4FF06
:10E0F00034BF012000205DF808FB00BF4A0011D2A8
:10E1000012F5001211D20DD56FF47873B3EB625291
:10E110000ED44FEAC12343F0004343EA505323FA9D
:10E1200002F070474FF00000704750EA013002D112
:10E130004FF0FF3070474FF00000704753B94AB9B5
:10E14000002908BF00281CBF4FF0FF314FF0FF30FF
:10E1500000F094B9ADF1080C6DE904CE00F028F898
:10E16000DDF804E0DDE9022304B07047D0B50022F9
:10E170000D4B06460F46FFF727FDFFF7BFFF04468E
:10E18000FFF7A8FC0022094BFFF71EFD02460B46D5
:10E1900030463946FFF760FBFFF7B0FF0022234609
:10E1A00010431946D0BD00BF0000F03D0000F04113
:10E1B0002DE9F047089E04468846002B4BD18A4241
:10E1C000154667D9B2FA82F24AB1C2F1200701FAC4
:10E1D00002F320FA07F7954047EA030894404FEA14
:10E1E000154E230CB8FBFEF71FFA85FC0EFB1788B3
:10E1F00043EA084307FB0CF1994209D9EB1807F1F0
:10E20000FF3080F01B81994240F21881023F2B447D
:10E210005B1AA4B2B3FBFEF00EFB103344EA0344D6
:10E2200000FB0CFCA44509D92C1900F1FF3380F048
:10E230000781A44540F2048102382C4440EA07409B
:10E24000A4EB0C0400271EB1D4400023C6E9004310
:10E250003946BDE8F0878B4209D9002E00F0EB80EB
:10E260000027C6E9000138463946BDE8F087B3FA11
:10E2700083F7002F47D18B4202D3824200F2FA800B
:10E28000841A61EB030301209846002EE0D0C6E912
:10E290000048DDE702B9FFDEB2FA82F2002A40F060
:10E2A0008F80491B4FEA154E1FFA85F80127B1FBF5
:10E2B000FEFC230C0EFB1C1143EA014308FB0CF18E
:10E2C000994207D9EB180CF1FF3002D2994200F2C3
:10E2D000CD808446591AA3B2B1FBFEF00EFB101498
:10E2E00043EA044408FB00F8A04507D92C1900F1C3
:10E2F000FF3302D2A04500F2B6801846A4EB080412
:10E3000040EA0C409FE7C7F1200CBB4022FA0CFE0C
:10E310004EEA030E01FA07F420FA0CF521FA0CF389
:10E320004FEA1E482543B3FBF8F92C0C08FB1933C0
:10E330001FFA8EFA44EA034309FB0AF49C4202FAEC
:10E3400007F200FA07F10BD91EEB030309F1FF30C6
:10E3500080F087809C4240F28480A9F102097344D6
:10E360001B1BADB2B3FBF8F008FB103345EA0344C6
:10E3700000FB0AFAA24508D91EEB040400F1FF33A2
:10E380006BD2A24569D90238744440EA0940A0FB27
:10E390000289A4EB0A044C45C2464B4654D351D0E3
:10E3A000002E69D0B1EB0A0564EB030404FA0CFCFF
:10E3B000FD40FC404CEA0505C6E90054002747E74C
:10E3C000C2F1200320FA03F7954001FA02F021FA86
:10E3D00003F34FEA154E3843010CB3FBFEF71FFA67
:10E3E00085F80EFB173341EA034107FB08F38B4224
:10E3F00004FA02F407D9691807F1FF3C2FD28B42C7
:10E400002DD9023F2944CB1A81B2B3FBFEF00EFB9B
:10E41000103341EA034100FB08F38B4207D9691826
:10E4200000F1FF3C17D28B4215D902382944C91A92
:10E4300040EA07473BE73746304609E70746E7E645
:10E440001846FBE64145ABD2B8EB020A69EB0E0277
:10E4500001381346A4E76046E9E7184695E76746A2
:10E46000D1E781467CE702382C4447E7ACF1020C47
:10E470002B442FE7384608E73746E9E6704700BFE8
:10E4800008B501221146082000F028FE08BD08B595
:10E490000021082000F0FCFD08BD08B5012108207E
:10E4A00000F0F6FD08BD000082B0234B9B6D13F019
:10E4B000805F15D0214B1B6803F4C063B3F5007F68
:10E4C00021D000211E4A136823F007030B43136079
:10E4D000136803F007038B421FD0002002B070477F
:10E4E000154A936D43F080539365936D03F0805309
:10E4F0000193019B114B1B6803F4C063916D21F0E4
:10E5000080519165DAE7802803D9A02803D9022138
:10E51000D8E70021D6E70121D4E7A2F5805213689D
:10E5200043F008031360136823F0F00343F0B003D3
:10E5300013600120D2E700BF0010024000700040CD
:10E540000020024010B5114CD4F8883043F4700319
:10E55000C4F888300E4B1A6842F001021A6000219C
:10E5600099601A6822F0A85222F410221A604FF41F
:10E570008052DA601A6822F480221A609961B02011
:10E58000FFF792FF4FF00063A36010BD00ED00E0C5
:10E59000001002402DE9F04F8DB072B6312000F02E
:10E5A000B7F900F007FE02F0AFFAFFF769FF01F0DC
:10E5B0000DFD2D223B21032001F090FD00231A4682
:10E5C0001946184601F05EFD4FF4E131022001F0DA
:10E5D000A1FA00F0B3FB00F04FFB01F0FDFB0220BD
:10E5E00001F0A0FB62B6012001F0BCFB592484E0DD
:10E5F000B64B00221A70B64B59789A7801EB81011C
:10E6000048000244D2B2103AB24D2A7019795A79B0
:10E6100001EB810148000244D2B2103A6A70D97904
:10E620001A7A01EB810148000244D2B2103AAA7072
:10E630009A7AD87A02EB820251000844C0B21038AC
:10E64000C0B2E8705A7B997B02EB820256003144DB
:10E65000C9B21039C9B229711E7C5A7C06EB8606F4
:10E6600077003A44D2B2103AD2B26A71DB7D303BC5
:10E67000AB7101F033FDAB79AA786978287801F0A5
:10E6800001FD40E0312000F043F9934B20220021AE
:10E69000312000F0E7F94E2471E04E2C6FD131208B
:10E6A00000F036F98D4B20220021312000F0DAF9FC
:10E6B000592464E000F08CFDFFF7E9FE884D00224C
:10E6C000884BD5E90001FFF7C9F8C5E9000110231F
:10E6D00078221421002000F07FFB082304AA1421D3
:10E6E000002000F023FC102378221421002000F0E9
:10E6F000D7FA9DF80F30042B65D0744B1B78DBB232
:10E70000012B3FF475AF0DF10D020DF10E010DF16E
:10E710000F0001F021FC102378220021084600F0B0
:10E720005BFB0823704A0021084600F0FFFB9DF8C0
:10E730000F200825009502230021282000F00EFC60
:10E740009DF80E200095022300213C2000F006FCDD
:10E750009DF80D20009502230021502000F0FEFBC3
:10E76000102378220021084600F09AFA02F0D9F925
:10E7700008B9592C86D002F0D4F901288DD05B4B12
:10E780001A885B4BA3FB02139B0803EB8303D31A8A
:10E790009BB2002BB1D120230022312104A800F02C
:10E7A000E3F802F0BEF9002884D100F018FDFFF76D
:10E7B00074FE504D00224B4BD5E90001FFF74EF897
:10E7C000C5E9000183E79DF80E30002B95D19DF837
:10E7D0000D30002B91D1474BD3E90067404BD3E973
:10E7E00000AB52465B4630463946FFF737F8804665
:10E7F000894602460B4630463946FFF70FFB3E4F2F
:10E80000C7E9000142464B4650465946FFF706FB12
:10E810003A4EC6E90001102378222821002000F09A
:10E82000DBFA0022364BD7E90001FFF7CDF90825C6
:10E83000009502231A4641EC100B2821002000F01D
:10E84000BBFB00222E4BD6E90001FFF7BDF9009576
:10E8500002231A4641EC100B28213C2000F0ACFBAF
:10E86000DFF8A8802B4642462821322000F05EFBCC
:10E870002B46424628216E2000F058FB10237822B8
:10E880002821002000F00CFA00221D4BD7E90001DE
:10E89000FFF79AF902460B461A4801F0D5F80146EF
:10E8A000022001F001FA0022154BD6E90001FFF722
:10E8B0008BF902460B46144801F0C6F801460220C7
:10E8C00001F0F2F9C82001F003FB16E75C200020FC
:10E8D00070200020A8200020EC140108F414010886
:10E8E000502000200000F03FE41401084C200020DC
:10E8F000CDCCCCCCA020002090200020682000208F
:10E9000000005940041501082015010800150108F0
:10E91000144B1B6913F4803FFAD1124B1A6922F091
:10E920007F421A615A6922F001025A615A6942F023
:10E9300002025A615A6922F47E725A615A6942EAA5
:10E94000C00058615A6942F480325A61054B1B6914
:10E9500013F4803FFAD1034A536923F00203536151
:10E96000002070470020024008B501F5803102EB1D
:10E97000C1211A4602F080F908BD08B502F07CF901
:10E9800008BDB0B500AF0C46CB1DDB086A46A2EB54
:10E99000C3039D466D4600F580312246C902684694
:10E9A00002F06AF90023A34205D2EA5CFF2A05D1EE
:10E9B00001339BB2F7E70120BD46B0BD0020FBE765
:10E9C00010B40C4B1B6813F4806F04D0094C2368FF
:10E9D00023F480632360074B5C6944F001045C61AD
:10E9E000016042605A6922F001025A6100205DF81C
:10E9F000044B704700200240F8B517461D46184BDF
:10EA00001B6913F4803FFAD100F5803001EBC0267A
:10EA100000241BE0285D2B19597840EA01209978E1
:10EA200040EA0140D9781A7993F805C042EA0C22ED
:10EA300093F806C042EA0C42DB7942EA036240EAFC
:10EA40000161A019FFF7BCFF0834A4B2BC42E1D3B6
:10EA5000034B1B6913F4803FFAD10020F8BD00BFBF
:10EA6000002002402DE9F041ADF5006D0746144647
:10EA70001D46224A136923F07F4313616318B3F5DF
:10EA8000006F09DC0E464FF4006300220146684621
:10EA9000FFF76AFF00231BE08846C1F500622B46A2
:10EAA00092B2FFF7DFFF08EB040292B2C8F50063F1
:10EAB000A2F50062781C2B4492B2002180B2FFF7CD
:10EAC000D1FF11E09A19E95C0DF8021001339BB2F5
:10EAD000A342F7D33846FFF71BFF6B464FF40062A3
:10EAE00000213846FFF788FF044B1B6913F4803F71
:10EAF000FAD100200DF5006DBDE8F0810020024044
:10EB000010B50346C0F3CF209BB2C402A4B21C1BB5
:10EB100013460A46A1B2FFF7A5FF034B1B6913F486
:10EB2000803FFAD1002010BD0020024008B5014608
:10EB30004FF4007000F0ACFA08BD08B5014640F291
:10EB4000012000F0A5FA08BD08B5002204E0013359
:10EB5000B3F57A7FFBD30132B2F57A7F01D200237D
:10EB6000F6E7012211464FF4007000F0B7FA0122D7
:10EB7000114640F2012000F0B1FA0120FFF7D6FF64
:10EB80000120FFF7DAFF08BD08B50120FFF7D5FF28
:10EB90000120FFF7CBFF0020FFF7CFFF0020FFF79A
:10EBA000C5FF08BD08B50020FFF7C7FF0120FFF72C
:10EBB000BDFF0120FFF7C1FF08BD38B505460024A1
:10EBC0000FE0802323411D4214BF01200020FFF7E6
:10EBD000B4FF0120FFF7AAFF0020FFF7A7FF0134D1
:10EBE000E4B2072CEDD90120FFF7A0FF0020FFF7CA
:10EBF0009DFF38BD10B50446FFF7C6FF7820FFF72C
:10EC0000DCFF0020FFF7D9FF2046FFF7D6FFFFF714
:10EC1000C9FF10BD70B506460D46FFF7B5FF782059
:10EC2000FFF7CBFF4020FFF7C8FF002404E0305D72
:10EC3000FFF7C3FF0134E4B2AC42F8D3FFF7B2FFF1
:10EC400070BD10B50C4640F0B000FFF7D3FF2009AF
:10EC500040F01000FFF7CEFF04F00F00FFF7CAFFEF
:10EC600010BD012302E000FB03F311464A1E0029F8
:10EC7000F9D118467047000010B500240BE00021C0
:10EC80002046FFF7DEFF8021044800EBC410FFF7A9
:10EC9000C1FF0134E4B2072CF1D910BDB028002027
:10ECA00010F0800F31D12DE9F047064690461F46FF
:10ECB0003F2928D882461318802B03DDC0F1800835
:10ECC0005FFA88F889467B18402B02DDC1F14007C6
:10ECD000FFB2CC0810E0DB1001339D4213DA31465D
:10ECE0002046FFF7AEFF0AEBC5154146074828440A
:10ECF000FFF790FF0134E4B2254607EB0903013B1F
:10ED0000E9D50733E7E7BDE8F0877047B028002072
:10ED100000200BE0084A02EBC0120021D15401335D
:10ED2000DBB213F0800FF5D00130C0B2072801D854
:10ED30000023F6E7704700BFB028002008B5FFF7B2
:10ED400003FFAE20FFF756FFD520FFF753FF8020CB
:10ED5000FFF750FFA820FFF74DFF3F20FFF74AFFC6
:10ED6000D320FFF747FF0020FFF744FF4020FFF7C5
:10ED700041FFA120FFF73EFFC820FFF73BFFDA204D
:10ED8000FFF738FF1220FFF735FF8120FFF732FF32
:10ED9000CF20FFF72FFFD920FFF72CFFF120FFF73F
:10EDA00029FFDB20FFF726FF3020FFF723FFA420F9
:10EDB000FFF720FFA620FFF71DFF8D20FFF71AFFAA
:10EDC0001420FFF717FFAF20FFF714FFFFF7A0FF96
:10EDD000FFF752FF08BD000010F0800F2DD13F2932
:10EDE0002BD8F0B584461418802C02DDC0F18002C7
:10EDF000D2B28E465C18402C18DDC1F14003DBB264
:10EE000014E0CD0801F00707012606FA07F70B4EBC
:10EE100006EBC5152E5D26EA07062E550134E4B231
:10EE200002EB0C05AC42ECDB0131C9B203EB0E0482
:10EE3000A14201DA0446F3E7F0BD7047B028002094
:10EE40002DE9F04F83B0DDF8309010F0800F01D144
:10EE50003F2902D903B0BDE8F08F019390460F46D9
:10EE60008246FFF7B9FF4FF0000B2DE00134E4B20A
:10EE7000444525D20AEB04027F2A21DC0EEBD7039E
:10EE8000072BE7DC0EFB084019F8006007F00705C8
:10EE900006FA05FC124901EBC3118E5C46EA0C062A
:10EEA0008E540133072BE1DC19F80000C5F1080589
:10EEB00028410B4901EBC3139D5C05439D54D5E7E5
:10EEC0000BF1010B5FFA8BFBDE46019B013B05D486
:10EED000DB1001339E45BDDA0024C9E70733F7E7AD
:10EEE000B028002000B583B0082B04D0062B0CD02E
:10EEF00003B05DF804FB203A0A4B03EB02120092C8
:10EF000010230822FFF79CFFF2E7203A02EB4202AF
:10EF10005300054A1344009308230622FFF790FF8D
:10EF2000E6E700BFF40E0108B80C01082DE9F04136
:10EF300080460F4616461D4600240AE014FB05F0E5
:10EF400058FA80F02B463946C0B2FFF7CBFF0134A8
:10EF5000E4B2325D002AF1D1BDE8F0812DE9F0473D
:10EF60008246894690461E469DF8207000241CE08B
:10EF700014FB07F55AFA85F5EDB2311B01390A2069
:10EF8000FFF76FFEB8FBF0F00A4AA2FB0032D2088E
:10EF900002EB82025300C21A30323B46D2B24946DB
:10EFA0002846FFF79FFF0134E4B2B442E0D3BDE846
:10EFB000F08700BFCDCCCCCC2DE9F04F85B0814699
:10EFC000884657EC106B15469A469DF8384000224B
:10EFD000002310EE100A3946FFF77CF8002849D0CC
:10EFE00023462B2241464846FFF77CFF30463946F0
:10EFF000FFF784F88346FEF76DFD02460B46304668
:10F000003946FEF729FCCDE9020151460A20FFF7F7
:10F0100028FE0646FEF75EFDDDE90223FEF7D4FD7D
:10F0200041EC100B01F0B2FD51EC100BFFF766F84C
:10F030000746B0FBF6F209EB040000942B465A4455
:10F040004146C0B2FFF78AFF05FB0440484423460F
:10F050002E224146C0B2FFF745FFA81C00FB0490DA
:10F06000009453463A464146C0B2FFF777FF05B0D9
:10F07000BDE8F08F23462D2241464846FFF732FF78
:10F0800007F100431F46B1E7030A0B701070704789
:10F0900010B582B00C460DF106020DF10701FFF725
:10F0A000F3FF9DF80730072B0BD00B4A52F82320B3
:10F0B000012C0BD09DF8061001238B40936202B007
:10F0C00010BD023B044A52F82320F1E79DF80610D8
:10F0D00001238B409361F2E704200020F0B583B058
:10F0E00005460C4616460DF106020DF10701FFF725
:10F0F000CBFF9DF80710072915D0124B53F82100BC
:10F10000114FFB6C01228A401343FB6401689DF898
:10F1100006305B0003229A4021EA0202012C07D04C
:10F12000026003B0F0BD8B1E064A52F82300E7E7E9
:10F13000012101FA03F31A43026031462846FFF722
:10F14000A7FFEEE7042000200010024010B582B0B7
:10F150000DF106020DF10701FFF796FF9DF807304C
:10F16000072B15D0124A52F823100C689DF8062080
:10F170005000022383402340C340012B0DD0096976
:10F18000012303FA02F20A420ED1002002B010BDA0
:10F19000023B074A52F82310E7E7496903FA02F2F3
:10F1A0000A4203D01846F1E71846EFE70020EDE7E2
:10F1B0000420002008B5012211464FF40270FFF729
:10F1C0008DFF0122114640F20720FFF787FF08BD9F
:10F1D00008B500214FF40270FFF75AFF08BD08B5CB
:10F1E00001214FF40270FFF753FF08BD10B50C4624
:10F1F0001368012B05D0022B07D02368013323604D
:10F2000010BD5368C0B29847F7E7936818709368C9
:10F2100001339360F1E730B4441C00250570B2B1AE
:10F22000096809B1002009E030234370012024E07F
:10F23000C1F130012170013001341146E9B191FB77
:10F24000F3F203FB12110029F2DB3031F2E715462D
:10F250000A6842B93023437001200EE03732227031
:10F26000013501340A463AB1B2FBF3F101FB132236
:10F27000092AF3D83032F2E7284630BC7047F8B597
:10F2800004460D4617461E4605E0324639463020F4
:10F29000FFF7ACFF0134AC42F7DBF8BDF8B504462C
:10F2A0000D4617461E4605E0324639462020FFF738
:10F2B0009DFF0134AC42F7DBF8BD000038B50546D0
:10F2C000024C2046FEF7BCFA255438BDB02C002075
:10F2D0002DE9F04F99B004468946924600211391DA
:10F2E00014911591169117914C22684601F0CFFCAC
:10F2F000D4E9004520462946FEF700FF8046FEF788
:10F30000E9FB02460B4620462946FEF7A5FA0446CD
:10F310000D46BAF1000F18D15CA3D3E90023FEF724
:10F3200053FCFEF723FF06460F464FF0000B18E094
:10F330000022534BFEF748FC33465E1E002BF7D1EC
:10F34000FEF714FF06460F46EFE75346F5E70022A7
:10F350004B4B20462946FEF737FC04460D460BF181
:10F36000010B0022474B20462946FEF79FFE38B18D
:10F370000022002320462946FEF78EFE0028E6D014
:10F380000BF1FF35B8F1000F23D1302389F800309D
:10F390004FF0010808F1010B2E2309F8083056EA56
:10F3A00007032CD000244CE0374BA3FB0813DB08E9
:10F3B000184603EB83035900A8EB010318A901EBDE
:10F3C000820141F8143C80460132B8F1000FEBD1C4
:10F3D0000CE00022F9E7013A18AB03EB820353F883
:10F3E000143C303309F8083008F10108002AF2D142
:10F3F000D0E7302209F80B209A460BF1010B0AF1F5
:10F40000FF33BAF1000FF4D1002309F80B3058464E
:10F4100019B0BDE8F08F0A22002330463946FEF7C6
:10F420008DFE04F1010818AB03EB840444F8602C52
:10F430000A22002330463946FEF780FE06460F4674
:10F44000444656EA0703E6D107E018AB03EB840312
:10F45000002243F8602C013D0134002DF5D10AE073
:10F46000013C18AB03EB840353F8603C303309F8DC
:10F470000B300BF1010B002CF2D1C5E7AFF300808C
:10F48000000024400000F03FCDCCCCCC00A0D885BB
:10F49000573476432DE9F04F97B001900C469146D2
:10F4A000212200210DA801F0F2FB30238DF8343029
:10F4B00000230C93012202929B460BE0019D2A46F9
:10F4C0000CA90D20FFF792FE2A460CA90A20FFF78F
:10F4D0008DFE01342078002800F0B282252841D02A
:10F4E0000A28EBD0019A0CA9FFF780FEF1E746F05D
:10F4F0000106144600293AD1621C6378203B102B88
:10F5000033D801A050F823F053F500086BF500083C
:10F510006BF500085FF500086BF500086BF5000857
:10F520006BF500086BF500086BF500086BF500083B
:10F530006BF500084DF500086BF50008EFF40008C6
:10F540006BF500086BF5000859F5000846F0020657
:10F55000CFE746F00406CCE746F00806C9E746F0D8
:10F560001006C6E700263146C4E70121C2E70025A0
:10F570002F4600E00F4667B9601C6378A3F13002A4
:10F58000092AF7D805EB85056A00303BD5180446F3
:10F59000F1E7621C63782E2B36D04FF00008CDF8CF
:10F5A0000880631C6278682A04D06C2A42D04C2AF6
:10F5B00043D023465C1C5878A0F15803202B00F25E
:10F5C0003882DFE813F01F013602360236023602B7
:10F5D00036023602360236023602A201EF013D0043
:10F5E00036029A00360236023D00360236023602F4
:10F5F00036022F028401B10136023602F9013602C9
:10F60000C001360236021F014FF00008404600E0FC
:10F61000384668B9541C5378A3F130010929F7D84A
:10F6200008EB88084FEA480202EB01082246F0E79F
:10F630001446B6E74BF0010BBCE74BF0020BB9E701
:10F6400009F10407D9F8003016A941F82C3D0A2326
:10F6500001220DA8FFF7DFFD82460DAB03EB00088A
:10F660000B9B002B07DB16F0020F17D000F1010AED
:10F670004FF02B0903E000F1010A4FF02D0916F0BD
:10F68000080F19D0B9F1000F10D1019B0CAA29461F
:10F690005046FFF7F4FDAA46B94671E116F0040999
:10F6A000EDD000F1010A4FF02009E8E7019A0CA91A
:10F6B0004846FFF79BFDE8E716F0010F04D0B9F1CB
:10F6C000000F13D1B9465BE1019B0CAA29465046B5
:10F6D000FFF7E4FDB9F1000F01D1B94650E1019AFD
:10F6E0000CA94846FFF782FDB94649E1019A0CA9E9
:10F6F0004846FFF77BFDB94642E109F10C07D9E91D
:10F70000019ACDE9089A0022002348465146FEF7A7
:10F71000CDFC40B916F0020F2BD116F004090DD024
:10F720004FF020090AE0CDF810900AF1004305934C
:10F730009DED047B8DED087B4FF02D09029BDBB91D
:10F74000BBF1000F1FD106220DA908A8FFF7C0FDCD
:10F75000804616F0080F23D0B9F1000F1AD1019B93
:10F760000CAA29464046FFF78AFDA8460DF1340948
:10F7700037E04FF02B09E1E742460DA908A8FFF753
:10F78000A7FD8046E5E706220DA908A8FFF7A0FD22
:10F790008046DEE7019A0CA94846FFF727FDDEE721
:10F7A00016F0010F08D0B9F1000FDFD0019A0CA9B3
:10F7B0004846FFF71BFDD9E7019B0CAA29464046A6
:10F7C000FFF76CFDB9F1000FD0D0019A0CA94846A3
:10F7D000FFF70CFDCAE709F10109019A0CA9FFF72F
:10F7E00005FD99F800000028F5D116F0010F01D1B0
:10F7F000B9466EE6019B0CAA29464046FFF74EFD2E
:10F80000B94666E609F104030393D9F8003016A956
:10F8100041F83C3D102300220DA8FFF7FCFC824676
:10F820000DAB03EB000816F0080921D016F0100903
:10F8300010D1019B0CAA29465046FFF720FDAA468D
:10F8400016F0100F00F0AB80B9F1000F2FD0DDF8EB
:10F850000C9095E0DDF804904A460CA93020FFF7A3
:10F86000C5FC4A460CA97820FFF7C0FCB946E0E782
:10F8700016F0010FE4D116F0100901D000F1020AD0
:10F88000019B0CAA29465046FFF708FDB9F1000F6D
:10F89000D6D0DDF804904A460CA93020FFF7A6FC2C
:10F8A0004A460CA97820FFF7A1FCB946C8E7019F9A
:10F8B0003A460CA93020FFF799FC3A460CA978206B
:10F8C000FFF794FC0AF1020ADDF80C9058E009F108
:10F8D0000407D9F8003016A941F83C3D082300225E
:10F8E0000DA8FFF798FC8246B9460DAB03EB0A085A
:10F8F00016F0080F36D116F0010F41D1019B0CAA6A
:10F9000029465046FFF7CAFC3AE009F10407D9F846
:10F91000003016A941F83C3D022300220DA8FFF754
:10F920007AFC8246B946E0E709F10407D9F80030CD
:10F9300016A941F83C3D102300220DA8FFF76BFCEF
:10F940008246B946D1E709F10407D9F8003016A973
:10F9500041F83C3D0A2300220DA8FFF75CFC8246DB
:10F96000B946C2E7019B0CAA29465046FFF787FC1F
:10F97000AA4605E008F1FF38019A0CA9FFF736FC0A
:10F9800098F800000028F5D116F0010F3FF4A1AD62
:10F99000019B0CAA29465046FFF780FC99E5DDF84B
:10F9A0000C90EDE709F10405019A0CA999F8000003
:10F9B000FFF71CFCA9468CE509F1040AD9F8007090
:10F9C000002F3BD03846FDF73BFF814616F001067D
:10F9D0000FD0B8F1000F17D03878C0B1B8F1000FD0
:10F9E00015DD08F1FF380137019A0CA9FFF7FEFB7E
:10F9F000F2E7019B0CAA2946FFF750FCE9E7013723
:10FA0000019A0CA9FFF7F2FB38780028F7D10EB95C
:10FA1000D1465EE5019B0CAA29464846FFF73EFC0D
:10FA2000D14656E5D9F800300C9A1A6009F104095C
:10FA30004FE5019A0CA9FFF7D9FB4AE5D14648E505
:10FA40000C9817B0BDE8F08F0FB410B584B00A4C15
:10FA5000C8220021204601F01AF901230193074B27
:10FA6000029307AA069901A8FFF714FD204604B0E7
:10FA7000BDE8104004B07047B02C0020BDF2000873
:10FA800000B5ADF6040D18217F20FEF77AFF20BBEC
:10FA90004FF4006214496846FEF76FFF379A134B24
:10FAA0001B689A420BD01A20FEF732FF0F4B1B68DF
:10FAB00037936A464FF400610B48FFF721F80C4B6F
:10FAC000094A9A600B4BA2F5C0421A600A4801F03D
:10FAD00007F80DF6040D5DF804FB084A18210848E4
:10FAE000FFF70EF8D4E700BF00D00008DC000008E4
:10FAF00000ED00E060200020581501083C150108C9
:10FB000000F803080138C0B2022801D8012070476C
:10FB10000020704738B504460D46FFF7F3FF002874
:10FB20003CD0022C57D0032C71D0012C37D0601E52
:10FB3000474B53F820100A6822F001020A6053F87C
:10FB400020100A6822F00C020A6053F820301A686C
:10FB500012F4004F76D03F4A1168B1FBF5F189B23B
:10FB6000490089B2D9603A4B53F820200021D16175
:10FB7000516821F49041516053F820108A6822F0B6
:10FB80002A028A6053F820100A6842F00C020A60C8
:10FB900053F82020136843F00103136038BD2E4B47
:10FBA0001A6E42F480421A66DA6C42F00102DA649C
:10FBB0004FF090431A6822F470121A601A6842F4E7
:10FBC00020121A605A6A22F47F625A625A6A42F418
:10FBD000EE625A62ABE7204B9A6D42F400329A65AE
:10FBE000DA6C42F00102DA644FF090431A6822F0B6
:10FBF000F0021A601A6842F0A0021A601A6A22F42F
:10FC00007F421A621A6A42F4EE421A628FE7124B7E
:10FC10009A6D42F480229A65DA6C42F00402DA644A
:10FC20000E4B1A6822F470021A601A6842F420021D
:10FC30001A605A6A22F47F425A625A6A42F4EE42C9
:10FC40005A6274E7034A1168B1FBF5F189B289E79A
:10FC50001C20002000200020001002400008004866
:10FC600038B504460D46FFF74DFF0346A8B1002204
:10FC70004FF6BA339A420BD8631E0A4951F8233023
:10FC8000D96911F0800F01D10132F1E7ADB21D85C4
:10FC90004FF6BA339A4202D80123184638BD0023E2
:10FCA000FBE700BF1C20002070B506460D46FFF79D
:10FCB00029FF034658B10024295D39B13046FFF7CA
:10FCC000CFFF034618B10134A4B2F5E7012318466B
:10FCD00070BD000070B504460D46FFF713FF0646E1
:10FCE00070B100224FF6BA339A4211D8631E0C4904
:10FCF00051F82330D96911F0200F05D10132F1E715
:10FD000000232B70304670BD9E8CF6B201232B7001
:10FD10004FF6BA339A42F5D900232B70FF26F1E74C
:10FD20001C20002010B50446FFF7ECFE98B1601EC1
:10FD3000094B53F82020136843F020031360074B4E
:10FD40001B56002B07DB03F01F015B0901228A40D1
:10FD5000034941F8232010BD1C200020282000204A
:10FD600000E100E01B4BCA225A6253225A629A6891
:10FD700022F480629A60174BDB6813F0040FFAD00C
:10FD8000144B9A6822F007029A609A6842F00402C3
:10FD90009A60D8B90F4B00225A610E4BDA6822F4F0
:10FDA0008062DA609A6842F480629A60FF225A6246
:10FDB00003F55C434FF480125A611A6842F48012D2
:10FDC0001A609A6842F480129A607047013858614C
:10FDD000E3E700BF00280040044A936843F48043EF
:10FDE0009360034B08221A60704700BF0028004050
:10FDF00000E100E0044BDB6813F4806F01D10020C8
:10FE000070470120704700BF00280040054AD368B2
:10FE100023F48063D36002F55C42536943F480139A
:10FE2000536170470028004030B90A4AD26812F482
:10FE3000807F0DD001207047012801D0002070473D
:10FE4000044AD26812F4007F01D100207047704745
:10FE5000704700BF0028004010B101280CD0704747
:10FE60000B4AD36823F48073D36002F55C42536974
:10FE700043F4802353617047054AD36823F4007329
:10FE8000D36002F55C42536943F480235361E6E793
:10FE9000002800400C4BCA225A6253225A62DA6888
:10FEA00022F02002DA60094B33B1074AD26812F01F
:10FEB000200F01D1013BF7E723B1034BFF225A6228
:10FEC000002070470120704700280040FFFF0F000E
:10FED000002201E000BF01324BF6803303FB00F348
:10FEE0009342F7D87047002303E00133DBB20A38AE
:10FEF000C0B20928F9D81B01DBB2184370470309C7
:10FF000003EB83035A0000F00F001044C0B27047A7
:10FF10002DE9F04180460F4616461D46FFF7BAFF11
:10FF20000028FBD10B4B5C68C4F30740FFF7E7FFE9
:10FF300088F80000C4F30420FFF7E1FF387004F0F4
:10FF40003F00FFF7DCFF3070C4F342342C70BDE893
:10FF5000F08100BF00280040F8B507460E46154660
:10FF6000FFF798FF0028FBD1084B1C68C4F305403D
:10FF7000FFF7C5FF3870C4F30620FFF7C0FF3070ED
:10FF800004F07F00FFF7BBFF2870F8BD0028004099
:10FF90000C4BDB6813F0400F12D10A4AD36843F0D0
:10FFA0008003D360084B00E0013B23B1054AD268CF
:10FFB00012F0400FF8D00BB10020704701207047BD
:10FFC0000020704700280040FFFF0F0010B52A4BAB
:10FFD0009A6D42F080529A6528490A6842F480720C
:10FFE0000A60D3F8942042F00102C3F89420224B17
:10FFF000D3F8943013F0020FF9D01F4BD3F89020B0
:020000040801F1
:1000000022F44072C3F89020D3F8902042F400729A
:10001000C3F89020D3F8902042F40042C3F8902017
:10002000A3F5F433CA225A6253225A6200229A601C
:10003000FFF7AEFF014688B9114BFF2018611A691E
:1000400042F4FE021A619A6822F040029A60DA686D
:1000500022F08002DA605862084610BD064C4FF468
:100060008033C4F890300A20FFF732FF0023C4F831
:1000700090300121F0E700BF001002400070004006
:10008000002800402DE9F04180460F4616461C46E8
:10009000114BCA225A6253225A62FFF779FFC8B93C
:1000A00005466403A4B24046FFF71DFF44EA00443E
:1000B0003846FFF718FF44EA00243046FFF713FFE5
:1000C0002043054B5860DA6822F08002DA60284647
:1000D000BDE8F0810125FAE700280040F8B50446A4
:1000E0000F4616460F4BCA225A6253225A62FFF736
:1000F0004FFFA8B905462046FFF7F5FE0404384631
:10010000FFF7F1FE44EA00243046FFF7ECFE2043FF
:10011000044B1860DA6822F08002DA602846F8BDE5
:100120000125FBE70028004010B586B0FFF762FE0E
:1001300008B906B010BDFFF769FE224A13880133E3
:1001400013800DF111030DF112020DF1130105A839
:10015000FFF7DEFE0DF115020DF116010DF117008E
:10016000FFF7FAFE9DF812309DF813209DF8141049
:10017000154C9DF8110003909DF8150002909DF814
:10018000160001909DF8170000902046FFF75CFCD8
:1001900001460220FFF788FD9DF812309DF81320DC
:1001A0009DF814109DF8110003909DF81500029021
:1001B0009DF8160001909DF817000090204600F071
:1001C0008FFCB6E74C200020AC15010808B50020D4
:1001D000FFF72AFE20B90120FFF726FE38B908BD37
:1001E0000020FFF739FE054800F07AFCF3E7012014
:1001F000FFF732FE024800F073FCF0E784150108B7
:10020000981501080F4B1B784BB93F2801D00020EF
:100210007047087001330B4A1370002070473BB1E0
:10022000212805D0C8540133064A137000207047B6
:10023000212801D000207047C854024B00221A70B8
:10024000012070474E20002010B582B072B60DF12B
:1002500007010220FFF73EFD04469DF8073053B921
:1002600007492046FFF7CEFF10B1064B01221A7056
:1002700062B602B010BD01460220FFF7F1FCEFE7C5
:10028000702000205C20002010B50C461368012B64
:1002900005D0022B07D023680133236010BD5368BB
:1002A000C0B29847F7E7936818709368013393607A
:1002B000F1E730B4441C00250570B2B1096809B1FA
:1002C000002009E030234370012024E0C1F1300117
:1002D0002170013001341146E9B191FBF3F203FBC7
:1002E00012110029F2DB3031F2E715460A6842B9F3
:1002F0003023437001200EE0373222700135013483
:100300000A463AB1B2FBF3F101FB1322092AF3D8F2
:100310003032F2E7284630BC7047F8B504460D4647
:1003200017461E4605E0324639463020FFF7ACFF3F
:100330000134AC42F7DBF8BDF8B504460D4617466C
:100340001E4605E0324639462020FFF79DFF013466
:10035000AC42F7DBF8BD08B501460320FFF780FC8F
:1003600008BD0000000000002DE9F04F99B00446E0
:100370008946924600211391149115911691179177
:100380004C22684600F083FCD4E90045204629460B
:10039000FDF7B4FE8046FDF79DFB02460B46204666
:1003A0002946FDF759FA04460D46BAF1000F18D157
:1003B0005CA3D3E90023FDF707FCFDF7D7FE064653
:1003C0000F464FF0000B18E00022534BFDF7FCFBEB
:1003D00033465E1E002BF7D1FDF7C8FE06460F46DA
:1003E000EFE75346F5E700224B4B20462946FDF741
:1003F000EBFB04460D460BF1010B0022474B204658
:100400002946FDF753FE38B1002200232046294635
:10041000FDF742FE0028E6D00BF1FF35B8F1000FE2
:1004200023D1302389F800304FF0010808F1010B87
:100430002E2309F8083056EA07032CD000244CE09C
:10044000374BA3FB0813DB08184603EB8303590063
:10045000A8EB010318A901EB820141F8143C804686
:100460000132B8F1000FEBD10CE00022F9E7013ABC
:1004700018AB03EB820353F8143C303309F808300F
:1004800008F10108002AF2D1D0E7302209F80B2048
:100490009A460BF1010B0AF1FF33BAF1000FF4D1C8
:1004A000002309F80B30584619B0BDE8F08F0A2236
:1004B000002330463946FDF741FE04F1010818AB30
:1004C00003EB840444F8602C0A22002330463946AA
:1004D000FDF734FE06460F46444656EA0703E6D1CA
:1004E00007E018AB03EB8403002243F8602C013DC6
:1004F0000134002DF5D10AE0013C18AB03EB840375
:1005000053F8603C303309F80B300BF1010B002C31
:10051000F2D1C5E7AFF30080000024400000F03FB7
:10052000CDCCCCCC00A0D885573476432DE9F04F04
:1005300097B001900C469146212200210DA800F0B1
:10054000A6FB30238DF8343000230C930122029255
:100550009B460BE0019D2A460CA90D20FFF794FE57
:100560002A460CA90A20FFF78FFE013420780028C4
:1005700000F0B282252841D00A28EBD0019A0CA9BC
:10058000FFF782FEF1E746F00106144600293AD152
:10059000621C6378203B102B33D801A050F823F065
:1005A000EB0501080306010803060108F705010829
:1005B00003060108030601080306010803060108F3
:1005C000030601080306010803060108E505010802
:1005D0000306010887050108030601080306010850
:1005E000F105010846F00206CFE746F00406CCE725
:1005F00046F00806C9E746F01006C6E70026314671
:10060000C4E70121C2E700252F4600E00F4667B985
:10061000601C6378A3F13002092AF7D805EB850541
:100620006A00303BD5180446F1E7621C63782E2B34
:1006300036D04FF00008CDF80880631C6278682A35
:1006400004D06C2A42D04C2A43D023465C1C5878F4
:10065000A0F15803202B00F23882DFE813F01F01CD
:1006600036023602360236023602360236023602CA
:100670003602A201EF013D0036029A003602360230
:100680003D0036023602360236022F028401B101E5
:1006900036023602F9013602C001360236021F0167
:1006A0004FF00008404600E0384668B9541C5378C3
:1006B000A3F130010929F7D808EB88084FEA48026E
:1006C00002EB01082246F0E71446B6E74BF0010BB7
:1006D000BCE74BF0020BB9E709F10407D9F8003089
:1006E00016A941F82C3D0A2301220DA8FFF7E1FDD0
:1006F00082460DAB03EB00080B9B002B07DB16F0CB
:10070000020F17D000F1010A4FF02B0903E000F1AE
:10071000010A4FF02D0916F0080F19D0B9F1000F9A
:1007200010D1019B0CAA29465046FFF7F6FDAA46B8
:10073000B94671E116F00409EDD000F1010A4FF05D
:100740002009E8E7019A0CA94846FFF79DFDE8E774
:1007500016F0010F04D0B9F1000F13D1B9465BE1D7
:10076000019B0CAA29465046FFF7E6FDB9F1000FA0
:1007700001D1B94650E1019A0CA94846FFF784FD22
:10078000B94649E1019A0CA94846FFF77DFDB946F3
:1007900042E109F10C07D9E9019ACDE9089A002252
:1007A000002348465146FDF781FC40B916F0020F80
:1007B0002BD116F004090DD04FF020090AE0CDF836
:1007C00010900AF1004305939DED047B8DED087BAD
:1007D0004FF02D09029BDBB9BBF1000F1FD10622A0
:1007E0000DA908A8FFF7C0FD804616F0080F23D01A
:1007F000B9F1000F1AD1019B0CAA29464046FFF718
:100800008CFDA8460DF1340937E04FF02B09E1E7E4
:1008100042460DA908A8FFF7A7FD8046E5E7062296
:100820000DA908A8FFF7A0FD8046DEE7019A0CA9F4
:100830004846FFF729FDDEE716F0010F08D0B9F1B1
:10084000000FDFD0019A0CA94846FFF71DFDD9E73C
:10085000019B0CAA29464046FFF76EFDB9F1000F37
:10086000D0D0019A0CA94846FFF70EFDCAE709F15E
:100870000109019A0CA9FFF707FD99F8000000286B
:10088000F5D116F0010F01D1B9466EE6019B0CAA15
:1008900029464046FFF750FDB94666E609F10403D4
:1008A0000393D9F8003016A941F83C3D10230022EB
:1008B0000DA8FFF7FEFC82460DAB03EB000816F017
:1008C000080921D016F0100910D1019B0CAA294665
:1008D0005046FFF722FDAA4616F0100F00F0AB803D
:1008E000B9F1000F2FD0DDF80C9095E0DDF8049001
:1008F0004A460CA93020FFF7C7FC4A460CA97820CD
:10090000FFF7C2FCB946E0E716F0010FE4D116F09C
:10091000100901D000F1020A019B0CAA2946504699
:10092000FFF70AFDB9F1000FD6D0DDF804904A4672
:100930000CA93020FFF7A8FC4A460CA97820FFF745
:10094000A3FCB946C8E7019F3A460CA93020FFF73F
:100950009BFC3A460CA97820FFF796FC0AF1020AA4
:10096000DDF80C9058E009F10407D9F8003016A919
:1009700041F83C3D082300220DA8FFF79AFC82466F
:10098000B9460DAB03EB0A0816F0080F36D116F086
:10099000010F41D1019B0CAA29465046FFF7CCFC20
:1009A0003AE009F10407D9F8003016A941F83C3DB6
:1009B000022300220DA8FFF77CFC8246B946E0E73F
:1009C00009F10407D9F8003016A941F83C3D10237D
:1009D00000220DA8FFF76DFC8246B946D1E709F168
:1009E0000407D9F8003016A941F83C3D0A2300223B
:1009F0000DA8FFF75EFC8246B946C2E7019B0CAA30
:100A000029465046FFF789FCAA4605E008F1FF3861
:100A1000019A0CA9FFF738FC98F800000028F5D1DE
:100A200016F0010F3FF4A1AD019B0CAA29465046D8
:100A3000FFF782FC99E5DDF80C90EDE709F104057C
:100A4000019A0CA999F80000FFF71EFCA9468CE555
:100A500009F1040AD9F80070002F3BD03846FCF7A2
:100A6000EFFE814616F001060FD0B8F1000F17D047
:100A70003878C0B1B8F1000FFADD08F1FF3801375E
:100A8000019A0CA9FFF700FCF2E7019B0CAA29468A
:100A9000FFF752FCE9E70137019A0CA9FFF7F4FBD5
:100AA00038780028F7D10EB9D1465EE5019B0CAA33
:100AB00029464846FFF740FCD14656E5D9F80030B4
:100AC0000C9A1A6009F104094FE5019A0CA9FFF785
:100AD000DBFB4AE5D14648E50C9817B0BDE8F08F3E
:100AE0000FB400B585B001230193064B029306AA0B
:100AF00052F8041B01A8FFF719FD05B05DF804EBDF
:100B000004B070475703010808B50022114640F2AF
:100B10000920FEF7E3FA002140F20920FEF7B8FAB7
:100B200008BD08B540F20920FEF710FB08BD000023
:100B3000DFF838D0002103E00D4B5B5843500431FF
:100B40000C480D4B42189A42F6D30C4A02E000239F
:100B500042F8043B0A4B9A42F9D3FDF7F3FCFEF747
:100B60008FFF00F065F8FDF715FDFEE7FFFF0020A1
:100B7000E8150108002000202C2000203020002053
:100B8000782D002000B500BF00BD000053EC102BF5
:100B900070B5C3F30A55A5F2FF301328194610EEBD
:100BA000104A12DC00282BDB204D05412B421E464B
:100BB0002CD04FF400210141314421EA05010024E9
:100BC0000B46224643EC102B70BD332805DDB0F5F3
:100BD000806F1ED043EC102B70BDA5F213454FF073
:100BE000FF3626FA05F52A42F4D00123C0F133007E
:100BF00003FA00F0241828BFC91824EA0504DFE727
:100C0000013003F000410BD00024D9E7002AD0D1F5
:100C1000E0E710EE100AFCF721FE41EC100B70BD6E
:100C200041F07F5141F440110024C9E7FFFF0F005C
:100C300070B50D4E0D4CA41BA4100025A54209D182
:100C40000B4E0C4C00F02CF8A41BA4100025A54260
:100C500005D170BD56F8253098470135EEE756F8B6
:100C6000253098470135F2E7D8150108D815010855
:100C7000D8150108DC15010810B5431E0A4491423D
:100C800000D110BD11F8014B03F8014FF7E7024402
:100C90000346934200D1704703F8011BF9E70000B7
:100CA000F8B500BFF8BC08BC9E467047F8B500BF59
:080CB000F8BC08BC9E46704729
:100CB8000000000000000000002F000000000700F6
:100CC800070000147F147F1400242A7F2A120023AF
:100CD80013086462003649552250000000070000DE
:100CE80000001C224100000041221C000014083EA4
:100CF80008140008083E0808000000A0600000086A
:100D080008080808000060600000002010080402BD
:100D1800003E5149453E0000427F4000004261517B
:100D28004946002141454B31001814127F10002715
:100D380045454539003C4A494930000171090503D8
:100D480000364949493600064949291E0000363609
:100D5800000000005636000000081422410000146C
:100D68001414141400004122140800020151090649
:100D7800003E4955592E007C1211127C007F4949CA
:100D88004936003E41414122007F4141221C007FFB
:100D980049494941007F09090901003E4149497A09
:100DA800007F0808087F0000417F41000020404183
:100DB8003F01007F08142241007F40404040007FEF
:100DC800020C027F007F0408107F003E4141413E33
:100DD800007F09090906003E4151215E007F09197B
:100DE80029460046494949310001017F0101003F78
:100DF8004040403F001F2040201F003F4038403FF8
:100E0800006314081463000708700807006151495B
:100E1800454300007F414100000204081020000003
:100E280041417F000004020102040040404040406C
:100E3800000001020400002054545478007F484404
:100E4800443800384444442000384444487F00383B
:100E58005454541800087E0901020018A4A4A47C64
:100E6800007F080404780000447D4000004080842E
:100E78007D00007F102844000000417F4000007C76
:100E880004180478007C0804047800384444443882
:100E980000FC242424180018242418FC007C0804CE
:100EA800040800485454542000043F444020003CA7
:100EB8004040207C001C2040201C003C4030403C2E
:100EC800004428102844001CA0A0A07C00446454BE
:100ED8004C440000087F41000000007F0000000033
:100EE800417F080000080408100800000000000006
:100EF800000000000000000000000000000000F8F2
:100F080000000000000000333000000000160E0052
:100F1800160E0000000000000000000040C07840ED
:100F2800C0784000043F04043F040400007088FCBB
:100F380008300000001820FF211E0000F008F00013
:100F4800E018000000211C031E211E0000F0088884
:100F5800700000001E21232419272110000000160C
:100F68000E0000000000000000000000000000E08B
:100F780018040200000000071820400000020418AE
:100F8800E00000000040201807000000404080F00A
:100F9800804040000202010F01020200000000F040
:100FA800000000000101011F010101000000000014
:100FB8000000000000B07000000000000000000009
:100FC8000000000000010101010101010000000012
:100FD80000000000003030000000000000000000A9
:100FE80080601804006018060100000000E0100886
:100FF8000810E000000F102020100F00001010F85B
:10100800000000000020203F202000000070080899
:101018000888700000302824222130000030088819
:10102800884830000018202020110E000000C02041
:1010380010F8000000070424243F240000F8088862
:10104800880808000019212020110E0000E01088EF
:1010580088180000000F112020110E000038080821
:10106800C83808000000003F000000000070880831
:1010780008887000001C222121221C0000E01008B2
:101088000810E0000000312222110F00000000C00B
:10109800C00000000000003030000000000000C068
:1010A800C0000000000080B0700000000000804018
:1010B80020100800000102040810200040404040B1
:1010C8004040400004040404040404000008102004
:1010D8004080000000201008040201000070480849
:1010E8000808F0000000003036010000C030C828B1
:1010F800E810E0000718272423140B000000C0386C
:10110800E0000000203C23020227382008F88888E5
:1011180088700000203F202020110E00C0300808F1
:1011280008083800071820202010080008F80808C8
:101138000810E000203F202020100F0008F88888C1
:10114800E8081000203F20202320180008F888888D
:10115800E8081000203F200003000000C030080805
:101168000838000007182020221E020008F808008E
:101178000008F808203F210101213F20000808F855
:10118800080800000020203F202000000000080878
:10119800F8080800C08080807F00000008F888C038
:1011A80028180800203F20012638200008F80800E9
:1011B80000000000203F20202020300008F8F80020
:1011C800F8F80800203F003F003F200008F830C032
:1011D8000008F808203F200007183F00E010080822
:1011E8000810E0000F10202020100F0008F8080851
:1011F8000808F000203F210101010000E010080864
:101208000810E0000F18242438504F0008F8888888
:1012180088887000203F2000030C30200070880868
:10122800080838000038202121221C00180808F876
:10123800080818000000203F2000000008F80800F7
:101248000008F808001F202020201F0008788800C8
:1012580000C83808000007380E010000F80800F838
:101268000008F800033C0700073C030008186880E2
:101278008068180820302C03032C30200838C80058
:10128800C83808000000203F2000000010080808A7
:10129800C83808002038262120201800000000FE49
:1012A800020202000000007F40404000000C30C0F5
:1012B80000000000000000010638C0000002020221
:1012C800FE000000004040407F00000000201008A1
:1012D80004081020000000000000000000000000CA
:1012E80000000000808080808080808000020408E8
:1012F80000000000000000000000000000008080E6
:10130800808000000019242222223F2008F8008053
:1013180080000000003F112020110E000000008016
:1013280080800000000E11202020110000000080A5
:101338008088F800000E112020103F2000008080D7
:1013480080800000001F222222221300008080F0EB
:10135800888888180020203F202000000000808016
:1013680080808000006B94949493600008F800805B
:1013780080800000203F210000203F2000809898B6
:10138800000000000020203F202000000000008016
:101398009898000000C08080807F000008F8000056
:1013A80080808000203F24022D302000000808F8AB
:1013B800000000000020203F202000008080808066
:1013C80080808000203F20003F20003F0080800078
:1013D8008080000000203F2100203F200000808006
:1013E80080800000001F202020201F0080800080B7
:1013F8008000000080FFA12020110E000000008066
:1014080080808000000E112020A0FF808080800056
:101418008080800020203F21200001000000808083
:10142800808080000033242424241900008080E078
:10143800808000000000001F202000008080000045
:1014480000808000001F202020103F208080800026
:101458000080808000010E30080601008080008036
:10146800008080800F300C030C300F00008080005B
:10147800808080000020312E0E3120008080800086
:101488000080808080818E70180601000080808036
:10149800808080000021302C2221300000000000D4
:1014A800807C020200000000003F40400000000075
:1014B800FF00000000000000FF0000000002027CA6
:1014C800800000000040403F0000000000804040D5
:1014D80080000080000000000001010054696D6573
:1014E8003A0000006C696768740000006E6F206C39
:1014F800696768740000000025000000B5B1CCECF5
:10150800D3D0B9E2D5D5B0D9B7D6B1C8A3BA252EAC
:101518003266200A00000000B5B1CCECCEDEB9E29C
:10152800D5D5B0D9B7D6B1C8A3BA252E3266200A08
:101538000000000030313233343536373839414213
:1015480043444546323032303037313600000000EF
:101558002020A1BE55736572CCE1CABEA1BFA3BA53
:10156800BDABBDF8C8EB55736572B5C46D61696EE6
:101578002829D6B4D0D02E2E2E0D0A0054686973AF
:1015880020697320414C41524D5F412121210A00BD
:101598005468697320697320414C41524D5F422160
:1015A80021210A00253032642F253032642F25305E
:1015B800326420253032643A253032643A2530329C
:0815C800642025640A00000004
:0815D000E0CBFF7F01000000E9
:0815D80025D800080000000006
:0815E00001D800080000000022
:1015E800006CDC02000000480004004800080048C5
:1015F800000C004800100048001C0048003801405A
:0C16080000440040004800402526270058
:040000050800D80017
:00000001FF
